BL51 BANKED LINKER/LOCATER V6.22                                                        08/04/2017  15:48:36  PAGE 1


BL51 BANKED LINKER/LOCATER V6.22, INVOKED BY:
D:\KEIL\C51\BIN\BL51.EXE Serial_for_51.obj TO Serial_for_51 RAMSIZE (256)


MEMORY MODEL: SMALL


INPUT MODULES INCLUDED:
  Serial_for_51.obj (SERIAL_FOR_51)
  D:\KEIL\C51\LIB\C51S.LIB (?C_STARTUP)
  D:\KEIL\C51\LIB\C51S.LIB (?C?CLDPTR)


LINK MAP OF MODULE:  Serial_for_51 (SERIAL_FOR_51)


            TYPE    BASE      LENGTH    RELOCATION   SEGMENT NAME
            -----------------------------------------------------

            * * * * * * *   D A T A   M E M O R Y   * * * * * * *
            REG     0000H     0008H     ABSOLUTE     "REG BANK 0"
            DATA    0008H     0003H     UNIT         _DATA_GROUP_
                    000BH     0015H                  *** GAP ***
            BIT     0020H.0   0000H.1   UNIT         ?BI?SERIAL_FOR_51
                    0020H.1   0000H.7                *** GAP ***
            IDATA   0021H     0001H     UNIT         ?STACK

            * * * * * * *   C O D E   M E M O R Y   * * * * * * *
            CODE    0000H     0003H     ABSOLUTE     
            CODE    0003H     001CH     INBLOCK      ?PR?MAIN?SERIAL_FOR_51
                    001FH     0004H                  *** GAP ***
            CODE    0023H     0002H     ABSOLUTE     
            CODE    0025H     0022H     INBLOCK      ?PR?_SENDSTRING?SERIAL_FOR_51
            CODE    0047H     001CH     UNIT         ?CO?SERIAL_FOR_51
            CODE    0063H     0019H     UNIT         ?C?LIB_CODE
            CODE    007CH     0018H     INBLOCK      ?PR?UART_ISR?SERIAL_FOR_51
            CODE    0094H     0012H     INBLOCK      ?PR?_SENDDATA?SERIAL_FOR_51
            CODE    00A6H     000CH     UNIT         ?C_C51STARTUP



OVERLAY MAP OF MODULE:   Serial_for_51 (SERIAL_FOR_51)


SEGMENT                                 DATA_GROUP 
  +--> CALLED SEGMENT                 START    LENGTH
-----------------------------------------------------
?C_C51STARTUP                         -----    -----
  +--> ?PR?MAIN?SERIAL_FOR_51

?PR?MAIN?SERIAL_FOR_51                -----    -----
  +--> ?CO?SERIAL_FOR_51
  +--> ?PR?_SENDSTRING?SERIAL_FOR_51

?PR?_SENDSTRING?SERIAL_FOR_51         0008H    0003H
  +--> ?PR?_SENDDATA?SERIAL_FOR_51


BL51 BANKED LINKER/LOCATER V6.22                                                      08/04/2017  15:48:36  PAGE 2



SYMBOL TABLE OF MODULE:  Serial_for_51 (SERIAL_FOR_51)

  VALUE           TYPE          NAME
  ----------------------------------

  -------         MODULE        SERIAL_FOR_51
  C:0000H         SYMBOL        _ICE_DUMMY_
  D:0080H         PUBLIC        P0
  D:00A0H         PUBLIC        P2
  B:00A8H.7       PUBLIC        EA
  C:0025H         PUBLIC        _SendString
  C:0094H         PUBLIC        _SendData
  B:00A8H.4       PUBLIC        ES
  B:0098H.0       PUBLIC        RI
  B:0098H.1       PUBLIC        TI
  C:0003H         PUBLIC        main
  C:007CH         PUBLIC        Uart_Isr
  D:0099H         PUBLIC        SBUF
  D:0098H         PUBLIC        SCON
  D:0089H         PUBLIC        TMOD
  B:0020H.0       PUBLIC        busy
  D:00E0H         PUBLIC        ACC
  B:0098H.2       PUBLIC        RB8
  D:008DH         PUBLIC        TH1
  B:0098H.3       PUBLIC        TB8
  B:00D0H.0       PUBLIC        P
  D:008BH         PUBLIC        TL1
  B:0088H.6       PUBLIC        TR1
  B:00A0H.2       PUBLIC        bit9
  -------         PROC          MAIN
  C:0003H         LINE#         37
  C:0003H         LINE#         38
  C:0003H         LINE#         42
  C:0006H         LINE#         47
  C:0009H         LINE#         48
  C:000FH         LINE#         49
  C:0011H         LINE#         50
  C:0013H         LINE#         51
  C:0015H         LINE#         53
  C:001DH         LINE#         54
  -------         ENDPROC       MAIN
  -------         PROC          UART_ISR
  C:007CH         LINE#         60
  C:007EH         LINE#         62
  C:0081H         LINE#         63
  C:0081H         LINE#         64
  C:0083H         LINE#         65
  C:0086H         LINE#         66
  C:008AH         LINE#         67
  C:008AH         LINE#         68
  C:008DH         LINE#         69
  C:008DH         LINE#         70
  C:008FH         LINE#         71
  C:0091H         LINE#         72
  C:0091H         LINE#         73
  -------         ENDPROC       UART_ISR
BL51 BANKED LINKER/LOCATER V6.22                                                      08/04/2017  15:48:36  PAGE 3


  -------         PROC          _SENDDATA
  D:0007H         SYMBOL        dat
  C:0094H         LINE#         80
  C:0094H         LINE#         81
  C:0094H         LINE#         82
  C:0097H         LINE#         83
  C:0098H         LINE#         84
  C:009BH         LINE#         85
  C:009BH         LINE#         89
  C:009DH         LINE#         91
  C:009FH         LINE#         93
  C:009FH         LINE#         97
  C:00A1H         LINE#         99
  C:00A1H         LINE#         100
  C:00A3H         LINE#         101
  C:00A5H         LINE#         102
  -------         ENDPROC       _SENDDATA
  -------         PROC          _SENDSTRING
  D:0008H         SYMBOL        s
  C:0025H         LINE#         109
  C:002BH         LINE#         110
  C:002BH         LINE#         111
  C:0035H         LINE#         112
  C:0035H         LINE#         113
  C:0044H         LINE#         114
  C:0046H         LINE#         115
  -------         ENDPROC       _SENDSTRING
  -------         ENDMOD        SERIAL_FOR_51

  -------         MODULE        ?C?CLDPTR
  C:0063H         PUBLIC        ?C?CLDPTR
  -------         ENDMOD        ?C?CLDPTR

Program Size: data=12.1 xdata=0 code=174
LINK/LOCATE RUN COMPLETE.  0 WARNING(S),  0 ERROR(S)
